{
  "_format": "hh-sol-artifact-1",
  "contractName": "OrderBook",
  "sourceName": "contracts/OrderBook.sol",
  "abi": [
    {
      "inputs": [
        {
          "internalType": "address",
          "name": "_usdcAddress",
          "type": "address"
        }
      ],
      "stateMutability": "nonpayable",
      "type": "constructor"
    },
    {
      "anonymous": false,
      "inputs": [
        {
          "indexed": true,
          "internalType": "address",
          "name": "assetId",
          "type": "address"
        },
        {
          "indexed": false,
          "internalType": "uint32",
          "name": "decimal",
          "type": "uint32"
        },
        {
          "indexed": false,
          "internalType": "uint256",
          "name": "timestamp",
          "type": "uint256"
        }
      ],
      "name": "MarketCreateEvent",
      "type": "event"
    },
    {
      "anonymous": false,
      "inputs": [
        {
          "indexed": true,
          "internalType": "bytes32",
          "name": "id",
          "type": "bytes32"
        },
        {
          "indexed": true,
          "internalType": "address",
          "name": "trader",
          "type": "address"
        },
        {
          "indexed": true,
          "internalType": "address",
          "name": "baseToken",
          "type": "address"
        },
        {
          "indexed": false,
          "internalType": "int256",
          "name": "baseSize",
          "type": "int256"
        },
        {
          "indexed": false,
          "internalType": "uint256",
          "name": "orderPrice",
          "type": "uint256"
        },
        {
          "indexed": false,
          "internalType": "uint256",
          "name": "timestamp",
          "type": "uint256"
        }
      ],
      "name": "OrderChangeEvent",
      "type": "event"
    },
    {
      "anonymous": false,
      "inputs": [
        {
          "indexed": true,
          "internalType": "address",
          "name": "baseToken",
          "type": "address"
        },
        {
          "indexed": false,
          "internalType": "address",
          "name": "matcher",
          "type": "address"
        },
        {
          "indexed": true,
          "internalType": "address",
          "name": "seller",
          "type": "address"
        },
        {
          "indexed": true,
          "internalType": "address",
          "name": "buyer",
          "type": "address"
        },
        {
          "indexed": false,
          "internalType": "uint256",
          "name": "tradeAmount",
          "type": "uint256"
        },
        {
          "indexed": false,
          "internalType": "uint256",
          "name": "price",
          "type": "uint256"
        },
        {
          "indexed": false,
          "internalType": "uint256",
          "name": "timestamp",
          "type": "uint256"
        }
      ],
      "name": "TradeEvent",
      "type": "event"
    },
    {
      "inputs": [],
      "name": "USDC_ADDRESS",
      "outputs": [
        {
          "internalType": "address",
          "name": "",
          "type": "address"
        }
      ],
      "stateMutability": "view",
      "type": "function"
    },
    {
      "inputs": [
        {
          "internalType": "address",
          "name": "assetId",
          "type": "address"
        },
        {
          "internalType": "uint32",
          "name": "decimal",
          "type": "uint32"
        }
      ],
      "name": "createMarket",
      "outputs": [],
      "stateMutability": "nonpayable",
      "type": "function"
    },
    {
      "inputs": [
        {
          "internalType": "address",
          "name": "",
          "type": "address"
        }
      ],
      "name": "markets",
      "outputs": [
        {
          "internalType": "address",
          "name": "assetId",
          "type": "address"
        },
        {
          "internalType": "uint32",
          "name": "decimal",
          "type": "uint32"
        }
      ],
      "stateMutability": "view",
      "type": "function"
    },
    {
      "inputs": [
        {
          "internalType": "bytes32",
          "name": "orderSellId",
          "type": "bytes32"
        },
        {
          "internalType": "bytes32",
          "name": "orderBuyId",
          "type": "bytes32"
        }
      ],
      "name": "matchOrders",
      "outputs": [],
      "stateMutability": "nonpayable",
      "type": "function"
    },
    {
      "inputs": [
        {
          "internalType": "address",
          "name": "baseToken",
          "type": "address"
        },
        {
          "internalType": "int256",
          "name": "baseSize",
          "type": "int256"
        },
        {
          "internalType": "uint256",
          "name": "orderPrice",
          "type": "uint256"
        }
      ],
      "name": "openOrder",
      "outputs": [],
      "stateMutability": "nonpayable",
      "type": "function"
    },
    {
      "inputs": [
        {
          "internalType": "bytes32",
          "name": "",
          "type": "bytes32"
        }
      ],
      "name": "orders",
      "outputs": [
        {
          "internalType": "bytes32",
          "name": "id",
          "type": "bytes32"
        },
        {
          "internalType": "address",
          "name": "trader",
          "type": "address"
        },
        {
          "internalType": "address",
          "name": "baseToken",
          "type": "address"
        },
        {
          "internalType": "int256",
          "name": "baseSize",
          "type": "int256"
        },
        {
          "internalType": "uint256",
          "name": "orderPrice",
          "type": "uint256"
        }
      ],
      "stateMutability": "view",
      "type": "function"
    },
    {
      "inputs": [
        {
          "internalType": "address",
          "name": "",
          "type": "address"
        },
        {
          "internalType": "uint256",
          "name": "",
          "type": "uint256"
        }
      ],
      "name": "ordersByTrader",
      "outputs": [
        {
          "internalType": "bytes32",
          "name": "",
          "type": "bytes32"
        }
      ],
      "stateMutability": "view",
      "type": "function"
    },
    {
      "inputs": [
        {
          "internalType": "bytes32",
          "name": "orderId",
          "type": "bytes32"
        }
      ],
      "name": "removeOrder",
      "outputs": [],
      "stateMutability": "nonpayable",
      "type": "function"
    }
  ],
  "bytecode": "0x60806040523480156200001157600080fd5b5060405162002e1c38038062002e1c8339818101604052810190620000379190620000e8565b806000806101000a81548173ffffffffffffffffffffffffffffffffffffffff021916908373ffffffffffffffffffffffffffffffffffffffff160217905550506200011a565b600080fd5b600073ffffffffffffffffffffffffffffffffffffffff82169050919050565b6000620000b08262000083565b9050919050565b620000c281620000a3565b8114620000ce57600080fd5b50565b600081519050620000e281620000b7565b92915050565b6000602082840312156200010157620001006200007e565b5b60006200011184828501620000d1565b91505092915050565b612cf2806200012a6000396000f3fe608060405234801561001057600080fd5b50600436106100885760003560e01c80639c3f1e901161005b5780639c3f1e9014610126578063bb09d9b71461015a578063bbb9506f14610178578063fde996681461019457610088565b80634f268c1f1461008d57806360030c50146100bd5780637fe3826e146100d95780638e8f294b146100f5575b600080fd5b6100a760048036038101906100a29190611f40565b6101b0565b6040516100b49190611f99565b60405180910390f35b6100d760048036038101906100d29190611fea565b6101e1565b005b6100f360048036038101906100ee9190612069565b610b89565b005b61010f600480360381019061010a91906120a9565b61127c565b60405161011d929190612104565b60405180910390f35b610140600480360381019061013b919061212d565b6112d0565b604051610151959493929190612178565b60405180910390f35b610162611346565b60405161016f91906121cb565b60405180910390f35b610192600480360381019061018d9190612212565b61136a565b005b6101ae60048036038101906101a9919061212d565b6115e2565b005b600360205281600052604060002081815481106101cc57600080fd5b90600052602060002001600091509150505481565b600460009054906101000a900460ff1615610231576040517f08c379a0000000000000000000000000000000000000000000000000000000008152600401610228906122af565b60405180910390fd5b6001600460006101000a81548160ff0219169083151502179055506000811161028f576040517f08c379a00000000000000000000000000000000000000000000000000000000081526004016102869061231b565b60405180910390fd5b600082121561036a5760006102a383611ac9565b90508373ffffffffffffffffffffffffffffffffffffffff166323b872dd3330846040518463ffffffff1660e01b81526004016102e29392919061233b565b6020604051808303816000875af1158015610301573d6000803e3d6000fd5b505050506040513d601f19601f8201168201806040525081019061032591906123aa565b610364576040517f08c379a000000000000000000000000000000000000000000000000000000000815260040161035b90612423565b60405180910390fd5b506104f0565b600060066009600260008773ffffffffffffffffffffffffffffffffffffffff1673ffffffffffffffffffffffffffffffffffffffff16815260200190815260200160002060000160149054906101000a900463ffffffff166103cd9190612472565b6103d791906124aa565b63ffffffff16600a6103e99190612615565b9050600081836103f886611ac9565b6104029190612660565b61040c91906126d1565b905060008054906101000a900473ffffffffffffffffffffffffffffffffffffffff1673ffffffffffffffffffffffffffffffffffffffff166323b872dd3330846040518463ffffffff1660e01b815260040161046b9392919061233b565b6020604051808303816000875af115801561048a573d6000803e3d6000fd5b505050506040513d601f19601f820116820180604052508101906104ae91906123aa565b6104ed576040517f08c379a00000000000000000000000000000000000000000000000000000000081526004016104e490612423565b60405180910390fd5b50505b60006104fd338584611aed565b90506000600160008381526020019081526020016000209050600073ffffffffffffffffffffffffffffffffffffffff168160010160009054906101000a900473ffffffffffffffffffffffffffffffffffffffff1673ffffffffffffffffffffffffffffffffffffffff161461097b5760008482600301546105809190612702565b12156107cf578473ffffffffffffffffffffffffffffffffffffffff1663a9059cbb336105ac87611ac9565b6040518363ffffffff1660e01b81526004016105c992919061277a565b6020604051808303816000875af11580156105e8573d6000803e3d6000fd5b505050506040513d601f19601f8201168201806040525081019061060c91906123aa565b61064b576040517f08c379a000000000000000000000000000000000000000000000000000000000815260040161064290612423565b60405180910390fd5b600060066009600260008973ffffffffffffffffffffffffffffffffffffffff1673ffffffffffffffffffffffffffffffffffffffff16815260200190815260200160002060000160149054906101000a900463ffffffff166106ae9190612472565b6106b891906124aa565b63ffffffff16600a6106ca9190612615565b9050600081856106d988611ac9565b6106e39190612660565b6106ed91906126d1565b905060008054906101000a900473ffffffffffffffffffffffffffffffffffffffff1673ffffffffffffffffffffffffffffffffffffffff1663a9059cbb33836040518363ffffffff1660e01b815260040161074a92919061277a565b6020604051808303816000875af1158015610769573d6000803e3d6000fd5b505050506040513d601f19601f8201168201806040525081019061078d91906123aa565b6107cc576040517f08c379a00000000000000000000000000000000000000000000000000000000081526004016107c390612423565b60405180910390fd5b50505b838160030160008282546107e391906127a3565b9250508190555060008160030154146108fe578060016000848152602001908152602001600020600082015481600001556001820160009054906101000a900473ffffffffffffffffffffffffffffffffffffffff168160010160006101000a81548173ffffffffffffffffffffffffffffffffffffffff021916908373ffffffffffffffffffffffffffffffffffffffff1602179055506002820160009054906101000a900473ffffffffffffffffffffffffffffffffffffffff168160020160006101000a81548173ffffffffffffffffffffffffffffffffffffffff021916908373ffffffffffffffffffffffffffffffffffffffff1602179055506003820154816003015560048201548160040155905050610908565b61090782611b23565b5b8473ffffffffffffffffffffffffffffffffffffffff163373ffffffffffffffffffffffffffffffffffffffff16837f06014b5d94c88e299ec8a5c8061cfc6083f780e6b5205c1c24db899cc562b37a8460030154874260405161096e939291906127e7565b60405180910390a4610b67565b60006040518060a001604052808481526020013373ffffffffffffffffffffffffffffffffffffffff1681526020018773ffffffffffffffffffffffffffffffffffffffff16815260200186815260200185815250905080600160008581526020019081526020016000206000820151816000015560208201518160010160006101000a81548173ffffffffffffffffffffffffffffffffffffffff021916908373ffffffffffffffffffffffffffffffffffffffff16021790555060408201518160020160006101000a81548173ffffffffffffffffffffffffffffffffffffffff021916908373ffffffffffffffffffffffffffffffffffffffff1602179055506060820151816003015560808201518160040155905050600360003373ffffffffffffffffffffffffffffffffffffffff1673ffffffffffffffffffffffffffffffffffffffff1681526020019081526020016000208390806001815401808255809150506001900390600052602060002001600090919091909150558573ffffffffffffffffffffffffffffffffffffffff163373ffffffffffffffffffffffffffffffffffffffff16847f06014b5d94c88e299ec8a5c8061cfc6083f780e6b5205c1c24db899cc562b37a888842604051610b5d939291906127e7565b60405180910390a4505b50506000600460006101000a81548160ff021916908315150217905550505050565b600460009054906101000a900460ff1615610bd9576040517f08c379a0000000000000000000000000000000000000000000000000000000008152600401610bd0906122af565b60405180910390fd5b6001600460006101000a81548160ff0219169083151502179055506000600160008481526020019081526020016000209050600060016000848152602001908152602001600020905060008260030154128015610c3b57506000816003015412155b610c7a576040517f08c379a0000000000000000000000000000000000000000000000000000000008152600401610c7190612890565b60405180910390fd5b8060020160009054906101000a900473ffffffffffffffffffffffffffffffffffffffff1673ffffffffffffffffffffffffffffffffffffffff168260020160009054906101000a900473ffffffffffffffffffffffffffffffffffffffff1673ffffffffffffffffffffffffffffffffffffffff16148015610d0557508060040154826004015411155b610d44576040517f08c379a0000000000000000000000000000000000000000000000000000000008152600401610d3b906128fc565b60405180910390fd5b6000610d68610d568460030154611ac9565b610d638460030154611ac9565b611d77565b905060008360020160009054906101000a900473ffffffffffffffffffffffffffffffffffffffff169050600084600401549050600060066009600260008673ffffffffffffffffffffffffffffffffffffffff1673ffffffffffffffffffffffffffffffffffffffff16815260200190815260200160002060000160149054906101000a900463ffffffff16610dff9190612472565b610e0991906124aa565b63ffffffff16600a610e1b9190612615565b905060008183610e2a87611ac9565b610e349190612660565b610e3e91906126d1565b90508373ffffffffffffffffffffffffffffffffffffffff1663a9059cbb8760010160009054906101000a900473ffffffffffffffffffffffffffffffffffffffff16876040518363ffffffff1660e01b8152600401610e9f92919061277a565b6020604051808303816000875af1158015610ebe573d6000803e3d6000fd5b505050506040513d601f19601f82011682018060405250810190610ee291906123aa565b610f21576040517f08c379a0000000000000000000000000000000000000000000000000000000008152600401610f1890612423565b60405180910390fd5b86600401548660040154111561106657600081838860040154610f4389611ac9565b610f4d9190612660565b610f5791906126d1565b610f61919061291c565b905060008054906101000a900473ffffffffffffffffffffffffffffffffffffffff1673ffffffffffffffffffffffffffffffffffffffff1663a9059cbb8860010160009054906101000a900473ffffffffffffffffffffffffffffffffffffffff16836040518363ffffffff1660e01b8152600401610fe292919061277a565b6020604051808303816000875af1158015611001573d6000803e3d6000fd5b505050506040513d601f19601f8201168201806040525081019061102591906123aa565b611064576040517f08c379a000000000000000000000000000000000000000000000000000000000815260040161105b90612423565b60405180910390fd5b505b611079888661107490612950565b611d93565b60008054906101000a900473ffffffffffffffffffffffffffffffffffffffff1673ffffffffffffffffffffffffffffffffffffffff1663a9059cbb8860010160009054906101000a900473ffffffffffffffffffffffffffffffffffffffff16836040518363ffffffff1660e01b81526004016110f892919061277a565b6020604051808303816000875af1158015611117573d6000803e3d6000fd5b505050506040513d601f19601f8201168201806040525081019061113b91906123aa565b61117a576040517f08c379a000000000000000000000000000000000000000000000000000000000815260040161117190612423565b60405180910390fd5b6111848986611d93565b8560010160009054906101000a900473ffffffffffffffffffffffffffffffffffffffff1673ffffffffffffffffffffffffffffffffffffffff168760010160009054906101000a900473ffffffffffffffffffffffffffffffffffffffff1673ffffffffffffffffffffffffffffffffffffffff168573ffffffffffffffffffffffffffffffffffffffff167f94138eee44b40cd54c92d5fe844766ad8ffcc9bd898b87322f7aa98a548ef9bf3361123c8a611ac9565b884260405161124e9493929190612998565b60405180910390a4505050505050506000600460006101000a81548160ff0219169083151502179055505050565b60026020528060005260406000206000915090508060000160009054906101000a900473ffffffffffffffffffffffffffffffffffffffff16908060000160149054906101000a900463ffffffff16905082565b60016020528060005260406000206000915090508060000154908060010160009054906101000a900473ffffffffffffffffffffffffffffffffffffffff16908060020160009054906101000a900473ffffffffffffffffffffffffffffffffffffffff16908060030154908060040154905085565b60008054906101000a900473ffffffffffffffffffffffffffffffffffffffff1681565b600073ffffffffffffffffffffffffffffffffffffffff16600260008473ffffffffffffffffffffffffffffffffffffffff1673ffffffffffffffffffffffffffffffffffffffff16815260200190815260200160002060000160009054906101000a900473ffffffffffffffffffffffffffffffffffffffff1673ffffffffffffffffffffffffffffffffffffffff16148061146057506000600260008473ffffffffffffffffffffffffffffffffffffffff1673ffffffffffffffffffffffffffffffffffffffff16815260200190815260200160002060000160149054906101000a900463ffffffff1663ffffffff1614155b61149f576040517f08c379a000000000000000000000000000000000000000000000000000000000815260040161149690612a4f565b60405180910390fd5b600060405180604001604052808473ffffffffffffffffffffffffffffffffffffffff1681526020018363ffffffff16815250905080600260008573ffffffffffffffffffffffffffffffffffffffff1673ffffffffffffffffffffffffffffffffffffffff16815260200190815260200160002060008201518160000160006101000a81548173ffffffffffffffffffffffffffffffffffffffff021916908373ffffffffffffffffffffffffffffffffffffffff16021790555060208201518160000160146101000a81548163ffffffff021916908363ffffffff160217905550905050806000015173ffffffffffffffffffffffffffffffffffffffff167fa8491200462af574704b01afa5bf4e519e8faf4e70ee30e072d968f6f1274ac98260200151426040516115d5929190612a6f565b60405180910390a2505050565b600460009054906101000a900460ff1615611632576040517f08c379a0000000000000000000000000000000000000000000000000000000008152600401611629906122af565b60405180910390fd5b6001600460006101000a81548160ff02191690831515021790555060006001600083815260200190815260200160002090503373ffffffffffffffffffffffffffffffffffffffff168160010160009054906101000a900473ffffffffffffffffffffffffffffffffffffffff1673ffffffffffffffffffffffffffffffffffffffff16146116f6576040517f08c379a00000000000000000000000000000000000000000000000000000000081526004016116ed90612ae4565b60405180910390fd5b60006117058260030154611ac9565b905060008260030154121561181e578160020160009054906101000a900473ffffffffffffffffffffffffffffffffffffffff1673ffffffffffffffffffffffffffffffffffffffff1663a9059cbb8360010160009054906101000a900473ffffffffffffffffffffffffffffffffffffffff16836040518363ffffffff1660e01b815260040161179792919061277a565b6020604051808303816000875af11580156117b6573d6000803e3d6000fd5b505050506040513d601f19601f820116820180604052508101906117da91906123aa565b611819576040517f08c379a000000000000000000000000000000000000000000000000000000000815260040161181090612423565b60405180910390fd5b6119e6565b600060066009600260008660020160009054906101000a900473ffffffffffffffffffffffffffffffffffffffff1673ffffffffffffffffffffffffffffffffffffffff1673ffffffffffffffffffffffffffffffffffffffff16815260200190815260200160002060000160149054906101000a900463ffffffff166118a59190612472565b6118af91906124aa565b63ffffffff16600a6118c19190612615565b90506000818460040154846118d69190612660565b6118e091906126d1565b905060008054906101000a900473ffffffffffffffffffffffffffffffffffffffff1673ffffffffffffffffffffffffffffffffffffffff1663a9059cbb8560010160009054906101000a900473ffffffffffffffffffffffffffffffffffffffff16836040518363ffffffff1660e01b815260040161196192919061277a565b6020604051808303816000875af1158015611980573d6000803e3d6000fd5b505050506040513d601f19601f820116820180604052508101906119a491906123aa565b6119e3576040517f08c379a00000000000000000000000000000000000000000000000000000000081526004016119da90612423565b60405180910390fd5b50505b6119ef83611b23565b8160020160009054906101000a900473ffffffffffffffffffffffffffffffffffffffff1673ffffffffffffffffffffffffffffffffffffffff168260010160009054906101000a900473ffffffffffffffffffffffffffffffffffffffff1673ffffffffffffffffffffffffffffffffffffffff16847f06014b5d94c88e299ec8a5c8061cfc6083f780e6b5205c1c24db899cc562b37a8560030154866004015442604051611aa1939291906127e7565b60405180910390a450506000600460006101000a81548160ff02191690831515021790555050565b600080821215611ae45781611add90612950565b9050611ae8565b8190505b919050565b6000838383604051602001611b0493929190612b6d565b6040516020818303038152906040528051906020012090509392505050565b6000600160008381526020019081526020016000209050600073ffffffffffffffffffffffffffffffffffffffff168160010160009054906101000a900473ffffffffffffffffffffffffffffffffffffffff1673ffffffffffffffffffffffffffffffffffffffff1603611bcd576040517f08c379a0000000000000000000000000000000000000000000000000000000008152600401611bc490612bf6565b60405180910390fd5b6000600360008360010160009054906101000a900473ffffffffffffffffffffffffffffffffffffffff1673ffffffffffffffffffffffffffffffffffffffff1673ffffffffffffffffffffffffffffffffffffffff168152602001908152602001600020905060005b8180549050811015611cf55783828281548110611c5757611c56612c16565b5b906000526020600020015403611ce2578160018380549050611c79919061291c565b81548110611c8a57611c89612c16565b5b9060005260206000200154828281548110611ca857611ca7612c16565b5b906000526020600020018190555081805480611cc757611cc6612c45565b5b60019003818190600052602060002001600090559055611cf5565b8080611ced90612c74565b915050611c37565b50600160008481526020019081526020016000206000808201600090556001820160006101000a81549073ffffffffffffffffffffffffffffffffffffffff02191690556002820160006101000a81549073ffffffffffffffffffffffffffffffffffffffff0219169055600382016000905560048201600090555050505050565b600081831215611d8957829050611d8d565b8190505b92915050565b60006001600084815260200190815260200160002090506000828260030154611dbc91906127a3565b9050600a611dc982611ac9565b1215611de15760009050611ddc84611b23565b611deb565b8082600301819055505b8160020160009054906101000a900473ffffffffffffffffffffffffffffffffffffffff1673ffffffffffffffffffffffffffffffffffffffff168260010160009054906101000a900473ffffffffffffffffffffffffffffffffffffffff1673ffffffffffffffffffffffffffffffffffffffff16857f06014b5d94c88e299ec8a5c8061cfc6083f780e6b5205c1c24db899cc562b37a84866004015442604051611e99939291906127e7565b60405180910390a450505050565b600080fd5b600073ffffffffffffffffffffffffffffffffffffffff82169050919050565b6000611ed782611eac565b9050919050565b611ee781611ecc565b8114611ef257600080fd5b50565b600081359050611f0481611ede565b92915050565b6000819050919050565b611f1d81611f0a565b8114611f2857600080fd5b50565b600081359050611f3a81611f14565b92915050565b60008060408385031215611f5757611f56611ea7565b5b6000611f6585828601611ef5565b9250506020611f7685828601611f2b565b9150509250929050565b6000819050919050565b611f9381611f80565b82525050565b6000602082019050611fae6000830184611f8a565b92915050565b6000819050919050565b611fc781611fb4565b8114611fd257600080fd5b50565b600081359050611fe481611fbe565b92915050565b60008060006060848603121561200357612002611ea7565b5b600061201186828701611ef5565b935050602061202286828701611fd5565b925050604061203386828701611f2b565b9150509250925092565b61204681611f80565b811461205157600080fd5b50565b6000813590506120638161203d565b92915050565b600080604083850312156120805761207f611ea7565b5b600061208e85828601612054565b925050602061209f85828601612054565b9150509250929050565b6000602082840312156120bf576120be611ea7565b5b60006120cd84828501611ef5565b91505092915050565b6120df81611ecc565b82525050565b600063ffffffff82169050919050565b6120fe816120e5565b82525050565b600060408201905061211960008301856120d6565b61212660208301846120f5565b9392505050565b60006020828403121561214357612142611ea7565b5b600061215184828501612054565b91505092915050565b61216381611fb4565b82525050565b61217281611f0a565b82525050565b600060a08201905061218d6000830188611f8a565b61219a60208301876120d6565b6121a760408301866120d6565b6121b4606083018561215a565b6121c16080830184612169565b9695505050505050565b60006020820190506121e060008301846120d6565b92915050565b6121ef816120e5565b81146121fa57600080fd5b50565b60008135905061220c816121e6565b92915050565b6000806040838503121561222957612228611ea7565b5b600061223785828601611ef5565b9250506020612248858286016121fd565b9150509250929050565b600082825260208201905092915050565b7f4e6f207265656e7472616e637900000000000000000000000000000000000000600082015250565b6000612299600d83612252565b91506122a482612263565b602082019050919050565b600060208201905081810360008301526122c88161228c565b9050919050565b7f496e76616c6964206f7264657220707269636500000000000000000000000000600082015250565b6000612305601383612252565b9150612310826122cf565b602082019050919050565b60006020820190508181036000830152612334816122f8565b9050919050565b600060608201905061235060008301866120d6565b61235d60208301856120d6565b61236a6040830184612169565b949350505050565b60008115159050919050565b61238781612372565b811461239257600080fd5b50565b6000815190506123a48161237e565b92915050565b6000602082840312156123c0576123bf611ea7565b5b60006123ce84828501612395565b91505092915050565b7f5472616e73666572206661696c65640000000000000000000000000000000000600082015250565b600061240d600f83612252565b9150612418826123d7565b602082019050919050565b6000602082019050818103600083015261243c81612400565b9050919050565b7f4e487b7100000000000000000000000000000000000000000000000000000000600052601160045260246000fd5b600061247d826120e5565b9150612488836120e5565b9250828201905063ffffffff8111156124a4576124a3612443565b5b92915050565b60006124b5826120e5565b91506124c0836120e5565b9250828203905063ffffffff8111156124dc576124db612443565b5b92915050565b60008160011c9050919050565b6000808291508390505b60018511156125395780860481111561251557612514612443565b5b60018516156125245780820291505b8081029050612532856124e2565b94506124f9565b94509492505050565b600082612552576001905061260e565b81612560576000905061260e565b81600181146125765760028114612580576125af565b600191505061260e565b60ff84111561259257612591612443565b5b8360020a9150848211156125a9576125a8612443565b5b5061260e565b5060208310610133831016604e8410600b84101617156125e45782820a9050838111156125df576125de612443565b5b61260e565b6125f184848460016124ef565b9250905081840481111561260857612607612443565b5b81810290505b9392505050565b600061262082611f0a565b915061262b83611f0a565b92506126587fffffffffffffffffffffffffffffffffffffffffffffffffffffffffffffffff8484612542565b905092915050565b600061266b82611f0a565b915061267683611f0a565b925082820261268481611f0a565b9150828204841483151761269b5761269a612443565b5b5092915050565b7f4e487b7100000000000000000000000000000000000000000000000000000000600052601260045260246000fd5b60006126dc82611f0a565b91506126e783611f0a565b9250826126f7576126f66126a2565b5b828204905092915050565b600061270d82611fb4565b915061271883611fb4565b925082820261272681611fb4565b91507f8000000000000000000000000000000000000000000000000000000000000000841460008412161561275e5761275d612443565b5b828205841483151761277357612772612443565b5b5092915050565b600060408201905061278f60008301856120d6565b61279c6020830184612169565b9392505050565b60006127ae82611fb4565b91506127b983611fb4565b9250828201905082811215600083121683821260008412151617156127e1576127e0612443565b5b92915050565b60006060820190506127fc600083018661215a565b6128096020830185612169565b6128166040830184612169565b949350505050565b7f466972737420617267756d656e742073686f756c64206265206f72646572536560008201527f6c6c2c207365636f6e64206f7264657242757900000000000000000000000000602082015250565b600061287a603383612252565b91506128858261281e565b604082019050919050565b600060208201905081810360008301526128a98161286d565b9050919050565b7f4f72646572732063616e2774206265206d617463686564000000000000000000600082015250565b60006128e6601783612252565b91506128f1826128b0565b602082019050919050565b60006020820190508181036000830152612915816128d9565b9050919050565b600061292782611f0a565b915061293283611f0a565b925082820390508181111561294a57612949612443565b5b92915050565b600061295b82611fb4565b91507f8000000000000000000000000000000000000000000000000000000000000000820361298d5761298c612443565b5b816000039050919050565b60006080820190506129ad60008301876120d6565b6129ba6020830186612169565b6129c76040830185612169565b6129d46060830184612169565b95945050505050565b7f4d61726b657420616c726561647920657869737473206f7220756e696e69746960008201527f616c697a65640000000000000000000000000000000000000000000000000000602082015250565b6000612a39602683612252565b9150612a44826129dd565b604082019050919050565b60006020820190508181036000830152612a6881612a2c565b9050919050565b6000604082019050612a8460008301856120f5565b612a916020830184612169565b9392505050565b7f4163636573732044656e69656400000000000000000000000000000000000000600082015250565b6000612ace600d83612252565b9150612ad982612a98565b602082019050919050565b60006020820190508181036000830152612afd81612ac1565b9050919050565b60008160601b9050919050565b6000612b1c82612b04565b9050919050565b6000612b2e82612b11565b9050919050565b612b46612b4182611ecc565b612b23565b82525050565b6000819050919050565b612b67612b6282611f0a565b612b4c565b82525050565b6000612b798286612b35565b601482019150612b898285612b35565b601482019150612b998284612b56565b602082019150819050949350505050565b7f4f7264657220646f6573206e6f74206578697374000000000000000000000000600082015250565b6000612be0601483612252565b9150612beb82612baa565b602082019050919050565b60006020820190508181036000830152612c0f81612bd3565b9050919050565b7f4e487b7100000000000000000000000000000000000000000000000000000000600052603260045260246000fd5b7f4e487b7100000000000000000000000000000000000000000000000000000000600052603160045260246000fd5b6000612c7f82611f0a565b91507fffffffffffffffffffffffffffffffffffffffffffffffffffffffffffffffff8203612cb157612cb0612443565b5b60018201905091905056fea264697066735822122024ce537e746da4ce6043aec797c66963490849759c4a7d24b01cd0998d0a187564736f6c63430008140033",
  "linkReferences": {},
  "deployedLinkReferences": {}
}